{
  "_format": "hh-sol-artifact-1",
  "contractName": "VidVerse",
  "sourceName": "contracts/VidVerse.sol",
  "abi": [
    {
      "inputs": [
        {
          "internalType": "address",
          "name": "_zoraFactory",
          "type": "address"
        }
      ],
      "stateMutability": "nonpayable",
      "type": "constructor"
    },
    {
      "anonymous": false,
      "inputs": [
        {
          "indexed": true,
          "internalType": "uint256",
          "name": "id",
          "type": "uint256"
        },
        {
          "indexed": false,
          "internalType": "string",
          "name": "title",
          "type": "string"
        },
        {
          "indexed": false,
          "internalType": "string",
          "name": "description",
          "type": "string"
        },
        {
          "indexed": false,
          "internalType": "string",
          "name": "category",
          "type": "string"
        },
        {
          "indexed": false,
          "internalType": "string",
          "name": "location",
          "type": "string"
        },
        {
          "indexed": false,
          "internalType": "string",
          "name": "thumbnailHash",
          "type": "string"
        },
        {
          "indexed": false,
          "internalType": "string",
          "name": "videoHash",
          "type": "string"
        },
        {
          "indexed": false,
          "internalType": "string",
          "name": "metadataHash",
          "type": "string"
        },
        {
          "indexed": true,
          "internalType": "address",
          "name": "owner",
          "type": "address"
        },
        {
          "indexed": true,
          "internalType": "address",
          "name": "coinAddress",
          "type": "address"
        }
      ],
      "name": "VideoAdded",
      "type": "event"
    },
    {
      "anonymous": false,
      "inputs": [
        {
          "indexed": true,
          "internalType": "uint256",
          "name": "id",
          "type": "uint256"
        },
        {
          "indexed": true,
          "internalType": "uint256",
          "name": "videoId",
          "type": "uint256"
        },
        {
          "indexed": false,
          "internalType": "string",
          "name": "comment",
          "type": "string"
        },
        {
          "indexed": true,
          "internalType": "address",
          "name": "author",
          "type": "address"
        },
        {
          "indexed": false,
          "internalType": "uint256",
          "name": "createdAt",
          "type": "uint256"
        }
      ],
      "name": "VideoCommented",
      "type": "event"
    },
    {
      "anonymous": false,
      "inputs": [
        {
          "indexed": true,
          "internalType": "uint256",
          "name": "id",
          "type": "uint256"
        },
        {
          "indexed": false,
          "internalType": "string",
          "name": "title",
          "type": "string"
        },
        {
          "indexed": false,
          "internalType": "string",
          "name": "description",
          "type": "string"
        },
        {
          "indexed": false,
          "internalType": "string",
          "name": "category",
          "type": "string"
        },
        {
          "indexed": false,
          "internalType": "string",
          "name": "location",
          "type": "string"
        },
        {
          "indexed": false,
          "internalType": "string",
          "name": "thumbnailHash",
          "type": "string"
        },
        {
          "indexed": false,
          "internalType": "string",
          "name": "metadataHash",
          "type": "string"
        }
      ],
      "name": "VideoInfoUpdated",
      "type": "event"
    },
    {
      "anonymous": false,
      "inputs": [
        {
          "indexed": true,
          "internalType": "uint256",
          "name": "videoId",
          "type": "uint256"
        },
        {
          "indexed": true,
          "internalType": "address",
          "name": "user",
          "type": "address"
        },
        {
          "indexed": false,
          "internalType": "bool",
          "name": "isLiked",
          "type": "bool"
        }
      ],
      "name": "VideoLikeToggled",
      "type": "event"
    },
    {
      "inputs": [
        {
          "internalType": "string",
          "name": "_title",
          "type": "string"
        },
        {
          "internalType": "string",
          "name": "_description",
          "type": "string"
        },
        {
          "internalType": "string",
          "name": "_category",
          "type": "string"
        },
        {
          "internalType": "string",
          "name": "_location",
          "type": "string"
        },
        {
          "internalType": "string",
          "name": "_thumbnailHash",
          "type": "string"
        },
        {
          "internalType": "string",
          "name": "_videoHash",
          "type": "string"
        },
        {
          "internalType": "string",
          "name": "_metadataHash",
          "type": "string"
        }
      ],
      "name": "addVideo",
      "outputs": [],
      "stateMutability": "payable",
      "type": "function"
    },
    {
      "inputs": [
        {
          "internalType": "uint256",
          "name": "_videoId",
          "type": "uint256"
        },
        {
          "internalType": "string",
          "name": "_comment",
          "type": "string"
        }
      ],
      "name": "commentVideo",
      "outputs": [],
      "stateMutability": "nonpayable",
      "type": "function"
    },
    {
      "inputs": [
        {
          "internalType": "uint256",
          "name": "_videoId",
          "type": "uint256"
        }
      ],
      "name": "getVideoComments",
      "outputs": [
        {
          "components": [
            {
              "internalType": "uint256",
              "name": "id",
              "type": "uint256"
            },
            {
              "internalType": "uint256",
              "name": "videoId",
              "type": "uint256"
            },
            {
              "internalType": "string",
              "name": "comment",
              "type": "string"
            },
            {
              "internalType": "address",
              "name": "author",
              "type": "address"
            },
            {
              "internalType": "uint256",
              "name": "createdAt",
              "type": "uint256"
            }
          ],
          "internalType": "struct VidVerse.Comment[]",
          "name": "",
          "type": "tuple[]"
        }
      ],
      "stateMutability": "view",
      "type": "function"
    },
    {
      "inputs": [
        {
          "internalType": "uint256",
          "name": "videoId",
          "type": "uint256"
        },
        {
          "internalType": "address",
          "name": "user",
          "type": "address"
        }
      ],
      "name": "isVideoLikedByUser",
      "outputs": [
        {
          "internalType": "bool",
          "name": "isLiked",
          "type": "bool"
        }
      ],
      "stateMutability": "view",
      "type": "function"
    },
    {
      "inputs": [],
      "name": "nextVideoId",
      "outputs": [
        {
          "internalType": "uint256",
          "name": "",
          "type": "uint256"
        }
      ],
      "stateMutability": "view",
      "type": "function"
    },
    {
      "inputs": [
        {
          "internalType": "uint256",
          "name": "_videoId",
          "type": "uint256"
        }
      ],
      "name": "toggleLikeVideo",
      "outputs": [
        {
          "internalType": "bool",
          "name": "isLiked",
          "type": "bool"
        }
      ],
      "stateMutability": "nonpayable",
      "type": "function"
    },
    {
      "inputs": [
        {
          "internalType": "uint256",
          "name": "_videoId",
          "type": "uint256"
        },
        {
          "internalType": "string",
          "name": "_title",
          "type": "string"
        },
        {
          "internalType": "string",
          "name": "_description",
          "type": "string"
        },
        {
          "internalType": "string",
          "name": "_category",
          "type": "string"
        },
        {
          "internalType": "string",
          "name": "_location",
          "type": "string"
        },
        {
          "internalType": "string",
          "name": "_thumbnailHash",
          "type": "string"
        },
        {
          "internalType": "string",
          "name": "_metadataHash",
          "type": "string"
        }
      ],
      "name": "updateVideoInfo",
      "outputs": [],
      "stateMutability": "nonpayable",
      "type": "function"
    },
    {
      "inputs": [
        {
          "internalType": "uint256",
          "name": "id",
          "type": "uint256"
        },
        {
          "internalType": "uint256",
          "name": "",
          "type": "uint256"
        }
      ],
      "name": "videoComments",
      "outputs": [
        {
          "internalType": "uint256",
          "name": "id",
          "type": "uint256"
        },
        {
          "internalType": "uint256",
          "name": "videoId",
          "type": "uint256"
        },
        {
          "internalType": "string",
          "name": "comment",
          "type": "string"
        },
        {
          "internalType": "address",
          "name": "author",
          "type": "address"
        },
        {
          "internalType": "uint256",
          "name": "createdAt",
          "type": "uint256"
        }
      ],
      "stateMutability": "view",
      "type": "function"
    },
    {
      "inputs": [
        {
          "internalType": "uint256",
          "name": "id",
          "type": "uint256"
        }
      ],
      "name": "videos",
      "outputs": [
        {
          "internalType": "uint256",
          "name": "id",
          "type": "uint256"
        },
        {
          "internalType": "string",
          "name": "title",
          "type": "string"
        },
        {
          "internalType": "string",
          "name": "description",
          "type": "string"
        },
        {
          "internalType": "string",
          "name": "category",
          "type": "string"
        },
        {
          "internalType": "string",
          "name": "location",
          "type": "string"
        },
        {
          "internalType": "string",
          "name": "thumbnailHash",
          "type": "string"
        },
        {
          "internalType": "string",
          "name": "videoHash",
          "type": "string"
        },
        {
          "internalType": "address",
          "name": "owner",
          "type": "address"
        },
        {
          "internalType": "address",
          "name": "coinAddress",
          "type": "address"
        },
        {
          "internalType": "uint256",
          "name": "likesCount",
          "type": "uint256"
        },
        {
          "internalType": "uint256",
          "name": "commentsCount",
          "type": "uint256"
        },
        {
          "internalType": "uint256",
          "name": "createdAt",
          "type": "uint256"
        }
      ],
      "stateMutability": "view",
      "type": "function"
    },
    {
      "inputs": [],
      "name": "zoraFactory",
      "outputs": [
        {
          "internalType": "contract IZoraFactory",
          "name": "",
          "type": "address"
        }
      ],
      "stateMutability": "view",
      "type": "function"
    }
  ],
  "bytecode": "0x60a034606f57601f61254d38819003918201601f19168301916001600160401b03831184841017607457808492602094604052833981010312606f57516001600160a01b03811690819003606f576080526040516124c2908161008b823960805181818161059601526115360152f35b600080fd5b634e487b7160e01b600052604160045260246000fdfe60c0604052600436101561001257600080fd5b600060a05260a0513560e01c80633ca14dd11461127e5780633f8e895b14610a0d5780634e0930151461061f57806384d25b20146105c557806388972ac01461057f578063a062ab2b1461055f578063b528a42614610404578063d4516ab514610373578063daf6160c146101d05763e6821bf51461009057600080fd5b346101ca5760203660031901126101ca5760043560a05152600160205260a051604090208054600182016100c39061206a565b916100d06002820161206a565b6100dc6003830161206a565b916100e96004820161206a565b926100f66005830161206a565b936101036006840161206a565b600160a01b6001900360078501541695600160a01b6001900360088601541692600986015494600a87015496600b0154976040519b8c9b8c5260208c0161018090526101808c0161015391612131565b8b810360408d015261016491612131565b8a810360608c015261017591612131565b89810360808b015261018691612131565b88810360a08a015261019791612131565b87810360c08901526101a891612131565b9460e08701526101008601526101208501526101408401526101608301520390f35b60a05180fd5b346101ca5760203660031901126101ca576004358060a05152600160205261020a60018060a01b036007604060a051200154161515612257565b60a051526002602052604060a0512080549060a051506001600160401b03821161035b5760208260051b01916102436040519384611f76565b80835260208301809260a05152602060a0512060a051915b83831061030257848660405191829160208301906020845251809152604083019060408160051b850101929160a051905b82821061029b57505050500390f35b919360019193955060208091603f198982030185528751908151815282820151838201526080806102db604085015160a0604086015260a0850190612131565b93878060a01b0360608201511660608501520151910152960192019201859493919261028c565b6005602060019260405161031581611f45565b85548152848601548382015261032d6002870161206a565b6040820152848060a01b0360038701541660608201526004860154608082015281520192019201919061025b565b634e487b7160e01b60a051526041600452602460a051fd5b346101ca5760403660031901126101ca5760243560043560a051526002602052604060a051209081548110156101ca576103ac91611ffe565b5080546001820154916103c16002820161206a565b6103f5600460018060a01b03600385015416930154916040519586958652602086015260a0604086015260a0850190612131565b91606084015260808301520390f35b346101ca5760203660031901126101ca576004358060a05152600160205261043e60018060a01b036007604060a051200154161515612257565b60a08051829052600360209081529051604090819020336000908152925290205460ff161561050a578060a0515260016020526009604060a05120019081549182156104f2576020926000190190558060a0515260038252604060a0512060018060a01b0333166000528252604060002060ff19815416905560a0515b604051901515918282527fb995d37ace35a36299847e8859ddcf2ed2d47640f2ebe83a38d4a9c0e1e69e45843393a3604051908152f35b634e487b7160e01b60a051526011600452602460a051fd5b8060209160a05152600182526009604060a05120016105298154612232565b90558060a0515260038252604060a0512060018060a01b03331660005282526040600020600160ff1982541617905560016104bb565b346101ca5760a0513660031901126101ca57602060a05154604051908152f35b346101ca5760a0513660031901126101ca576040517f00000000000000000000000000000000000000000000000000000000000000006001600160a01b03168152602090f35b346101ca5760403660031901126101ca576024356001600160a01b03811681036101ca5760043560a051526003602052604060a051209060018060a01b0316600052602052602060ff604060002054166040519015158152f35b346101ca5760403660031901126101ca576004356024356001600160401b0381116101ca57610652903690600401611fb2565b908060a05152600160205261067960018060a01b036007604060a051200154161515612257565b81518015159081610a00575b50156109ad578060a0515260016020526024602060018060a01b036008604060a05120015416604051928380926370a0823160e01b82523360048301525afa9081156109a05760a0519161096e575b5015610919578060a051526001602052600a604060a05120018054906106f982612232565b90558160a051526002602052604060a051206040519061071882611f45565b82825260208201848152604083018681526060840191338352608085019342855280546801000000000000000081101561035b5761075b91600182018155611ffe565b9590956109005751855551600185015551805160028501916001600160401b03821161035b5761078b8354612030565b601f81116108b5575b506020906001601f8411146108465791809160049695949360a0519261083b575b50508160011b916000199060031b1c19161790555b516003840180546001600160a01b0319166001600160a01b03929092169190911790555191015560408051818152937fe53615e53cc65db4508b08b9849304553f31ccc70a1a4e3d55e3ff9dab26acd6916108289190860190612131565b934260208201528033950390a460a05180f35b015190508a806107b5565b90601f198316918460a051528160a051209260a0515b81811061089d57509160019391856004999897969410610884575b505050811b0190556107ca565b015160001960f88460031b161c191690558a8080610877565b9293602060018192878601518155019501930161085c565b8360a05152602060a05120601f840160051c810191602085106108f6575b601f0160051c01905b8181106108e95750610794565b60a05181556001016108dc565b90915081906108d3565b634e487b7160e01b60a0515260a051600452602460a051fd5b60405162461bcd60e51b815260206004820152602760248201527f596f75206d75737420686f6c642074686520766964656f20636f696e20746f2060448201526618dbdb5b595b9d60ca1b6064820152608490fd5b90506020813d602011610998575b8161098960209383611f76565b810103126101ca5751836106d4565b3d915061097c565b6040513d60a051823e3d90fd5b60405162461bcd60e51b815260206004820152602560248201527f436f6d6d656e74206d75737420626520312d3238302063686172616374657273604482015264206c6f6e6760d81b6064820152608490fd5b6101189150111583610685565b346101ca5760e03660031901126101ca576004356024356001600160401b0381116101ca57610a40903690600401611fb2565b6044356001600160401b0381116101ca57610a5f903690600401611fb2565b6064356001600160401b0381116101ca57610a7e903690600401611fb2565b916084356001600160401b0381116101ca57610a9e903690600401611fb2565b9260a4356001600160401b0381116101ca57610abe903690600401611fb2565b9260c4356001600160401b0381116101ca57610ade903690600401611fb2565b908660a051526001602052610b0560018060a01b036007604060a051200154161515612257565b60a080518890526001602052516040902060078101546001600160a01b0316330361122a57610b36855115156121ee565b610b4286511515612156565b610b4e835115156121a2565b845160018201956001600160401b03821161035b578190610b6f8854612030565b601f81116111d4575b506020906001601f84111461116c5760a05192611161575b50508160011b916000199060031b1c19161785555b815160028201926001600160401b03821161035b578190610bc68554612030565b601f811161110b575b506020906001601f8411146110a35760a05192611098575b50508160011b916000199060031b1c19161782555b835160038201946001600160401b03821161035b578190610c1d8754612030565b601f8111611042575b506020906001601f841114610fda5760a05192610fcf575b50508160011b916000199060031b1c19161784555b865160048201976001600160401b03821161035b578190610c748a54612030565b601f8111610f79575b506020906001601f841114610f115760a05192610f06575b50508160011b916000199060031b1c19161787555b855160058201966001600160401b03821161035b578190610ccb8954612030565b601f8111610eb0575b506020906001601f841114610e485760a05192610e3d575b50508160011b916000199060031b1c19161786555b600860018060a01b03910154169460405166697066733a2f2f60c81b6020820152610d4b6027828651610d3a8184840160208b0161210e565b81010301601f198101835282611f76565b863b156101ca57604051809763938e3d7b60e01b8252602060048301528180610d7b60a051956024830190612131565b039160a051905af19182156109a0577f64c070a949c778ff8ee00562157528f0c9676100670fc13091900d627420ad7097610df8610e2296610dea610e0694610ddc9b610e1498610e2b575b506040519b8c9b60c08d5260c08d019061229a565b908b820360208d015261229a565b9089820360408b015261229a565b90878203606089015261229a565b90858203608087015261229a565b9083820360a0850152612131565b0390a260a05180f35b60a051610e3791611f76565b8e610dc7565b015190508a80610cec565b60a080518b9052518281209350601f198516905b818110610e985750908460019594939210610e7f575b505050811b018655610d01565b015160001960f88460031b161c191690558a8080610e72565b92936020600181928786015181550195019301610e5c565b9091508860a05152602060a05120601f840160051c81019160208510610efc575b90601f859493920160051c01905b818110610eec5750610cd4565b60a0518155849350600101610edf565b9091508190610ed1565b015190508a80610c95565b60a080518c9052518281209350601f198516905b818110610f615750908460019594939210610f48575b505050811b018755610caa565b015160001960f88460031b161c191690558a8080610f3b565b92936020600181928786015181550195019301610f25565b9091508960a05152602060a05120601f840160051c81019160208510610fc5575b90601f859493920160051c01905b818110610fb55750610c7d565b60a0518155849350600101610fa8565b9091508190610f9a565b015190508a80610c3e565b60a08051899052518281209350601f198516905b81811061102a5750908460019594939210611011575b505050811b018455610c53565b015160001960f88460031b161c191690558a8080611004565b92936020600181928786015181550195019301610fee565b9091508660a05152602060a05120601f840160051c8101916020851061108e575b90601f859493920160051c01905b81811061107e5750610c26565b60a0518155849350600101611071565b9091508190611063565b015190508a80610be7565b60a08051879052518281209350601f198516905b8181106110f357509084600195949392106110da575b505050811b018255610bfc565b015160001960f88460031b161c191690558a80806110cd565b929360206001819287860151815501950193016110b7565b9091508460a05152602060a05120601f840160051c81019160208510611157575b90601f859493920160051c01905b8181106111475750610bcf565b60a051815584935060010161113a565b909150819061112c565b015190508a80610b90565b60a080518a9052518281209350601f198516905b8181106111bc57509084600195949392106111a3575b505050811b018555610ba5565b015160001960f88460031b161c191690558a8080611196565b92936020600181928786015181550195019301611180565b9091508760a05152602060a05120601f840160051c81019160208510611220575b90601f859493920160051c01905b8181106112105750610b78565b60a0518155849350600101611203565b90915081906111f5565b60405162461bcd60e51b815260206004820152602660248201527f4f6e6c7920566964656f206f776e65722063616e2075706461746520766964656044820152656f20696e666f60d01b6064820152608490fd5b60e03660031901126101ca576004356001600160401b0381116101ca576112a9903690600401611fb2565b6024356001600160401b0381116101ca576112c8903690600401611fb2565b6044356001600160401b0381116101ca576112e7903690600401611fb2565b906064356001600160401b0381116101ca57611307903690600401611fb2565b6084356001600160401b0381116101ca57611326903690600401611fb2565b60a4356001600160401b0381116101ca57611345903690600401611fb2565b9160c4356001600160401b0381116101ca57611365903690600401611fb2565b94835115611f005761137983511515612156565b611385865115156121a2565b611391875115156121ee565b60a051549461139f86612232565b60a051556113ac8661231d565b6113da6028604051809367566964566572736560c01b6020830152610d3a815180926020868601910161210e565b6113e38761231d565b61140c602360405180936215925160ea1b6020830152610d3a815180926020868601910161210e565b6040519166697066733a2f2f60c81b602084015261144b6027848c61143a815180926020868601910161210e565b81010301601f198101855284611f76565b6040519261145a606085611f76565b6002845260208401906040368337845115611ee857338252845160011015611ee8573060408087019190915251630f1ef2a560e21b815233600482015261012060248201529451610124860181905260a0518694936101448601939290915b818110611ec657505050936114f684936114e461150894604098600319888303016044890152612131565b85810360031901606487015290612131565b83810360031901608485015290612131565b3360a48301526006602160991b0160c483015262032d471960e48301523461010483018190529190039082907f00000000000000000000000000000000000000000000000000000000000000006001600160a01b03165af180156109a05760a051608052611e83575b5060405161018081018181106001600160401b0382111761035b576040528681528860208201528160408201528260608201528360808201528460a08201528560c08201523360e082015260018060a01b036080511661010082015260a05161012082015260a051610140820152426101608201528660a051526001602052604060a05120908051825560208101518051906001600160401b03821161035b5781906116206001860154612030565b601f8111611e2d575b506020906001601f841114611dbf5760a05192611db4575b50508160011b916000199060031b1c19161760018301555b60408101518051906001600160401b03821161035b57819061167e6002860154612030565b601f8111611d5e575b506020906001601f841114611cf05760a05192611ce5575b50508160011b916000199060031b1c19161760028301555b60608101518051906001600160401b03821161035b5781906116dc6003860154612030565b601f8111611c8f575b506020906001601f841114611c215760a05192611c16575b50508160011b916000199060031b1c19161760038301555b60808101518051906001600160401b03821161035b57819061173a6004860154612030565b601f8111611bc0575b506020906001601f841114611b525760a05192611b47575b50508160011b916000199060031b1c19161760048301555b60a08101518051906001600160401b03821161035b5781906117986005860154612030565b601f8111611af1575b506020906001601f841114611a835760a05192611a78575b50508160011b916000199060031b1c19161760058301555b60c08101518051906001600160401b03821161035b576117f46006850154612030565b601f8111611a2e575b506020906001601f84111461197b576119019c611947999661192b96600b6101607f6df883190cb3f004701ad1e959df9c574720009a452c0131f478c032209db11b9e9c988861191d996119399e9961190f9960a05192611970575b50508160011b916000199060031b1c19161760068501555b60018060a01b0360e082015116600785019060018060a01b03166bffffffffffffffffffffffff60a01b82541617905560018060a01b0361010082015116600885019060018060a01b03166bffffffffffffffffffffffff60a01b8254161790556101208101516009850155610140810151600a85015501519101556040519e8f9260e0845260e0840190612131565b916020818403910152612131565b8c810360408e015290612131565b908a820360608c0152612131565b9088820360808a0152612131565b9086820360a0880152612131565b9380850360c08201528061196760018060a01b0360805116963396612131565b0390a460a05180f35b015190503880611859565b906006850160a051528060a051209160a0515b601f1985168110611a1657509c611947999661192b966119019f6101607f6df883190cb3f004701ad1e959df9c574720009a452c0131f478c032209db11b9e9c986001896119399e9961190f99600b9661191d9d601f198116106119fd575b505050811b016006850155611871565b015160001960f88460031b161c191690553880806119ed565b9192602060018192868501518155019401920161198e565b6006850160a05152602060a05120601f840160051c810160208510611a71575b601f830160051c82018110611a645750506117fd565b60a0518155600101611a4e565b5080611a4e565b015190508c806117b9565b60a08051600588019052518281209350601f198516905b818110611ad95750908460019594939210611ac0575b505050811b0160058301556117d1565b015160001960f88460031b161c191690558c8080611ab0565b92936020600181928786015181550195019301611a9a565b9091506005850160a05152602060a05120601f840160051c810160208510611b40575b90849392915b601f830160051c82018110611b305750506117a1565b60a0518155859450600101611b1a565b5080611b14565b015190508c8061175b565b60a08051600488019052518281209350601f198516905b818110611ba85750908460019594939210611b8f575b505050811b016004830155611773565b015160001960f88460031b161c191690558c8080611b7f565b92936020600181928786015181550195019301611b69565b9091506004850160a05152602060a05120601f840160051c810160208510611c0f575b90849392915b601f830160051c82018110611bff575050611743565b60a0518155859450600101611be9565b5080611be3565b015190508c806116fd565b60a08051600388019052518281209350601f198516905b818110611c775750908460019594939210611c5e575b505050811b016003830155611715565b015160001960f88460031b161c191690558c8080611c4e565b92936020600181928786015181550195019301611c38565b9091506003850160a05152602060a05120601f840160051c810160208510611cde575b90849392915b601f830160051c82018110611cce5750506116e5565b60a0518155859450600101611cb8565b5080611cb2565b015190508c8061169f565b60a08051600288019052518281209350601f198516905b818110611d465750908460019594939210611d2d575b505050811b0160028301556116b7565b015160001960f88460031b161c191690558c8080611d1d565b92936020600181928786015181550195019301611d07565b9091506002850160a05152602060a05120601f840160051c810160208510611dad575b90849392915b601f830160051c82018110611d9d575050611687565b60a0518155859450600101611d87565b5080611d81565b015190508c80611641565b60a08051600188019052518281209350601f198516905b818110611e155750908460019594939210611dfc575b505050811b016001830155611659565b015160001960f88460031b161c191690558c8080611dec565b92936020600181928786015181550195019301611dd6565b9091506001850160a05152602060a05120601f840160051c810160208510611e7c575b90849392915b601f830160051c82018110611e6c575050611629565b60a0518155859450600101611e56565b5080611e50565b6040813d604011611ebe575b81611e9c60409383611f76565b810103126101ca57516001600160a01b03811681036101ca5760805288611571565b3d9150611e8f565b82516001600160a01b03168552889650602094850194909201916001016114b9565b634e487b7160e01b60a051526032600452602460a051fd5b60405162461bcd60e51b815260206004820152601a60248201527f566964656f20686173682063616e6e6f7420626520656d7074790000000000006044820152606490fd5b60a081019081106001600160401b03821117611f6057604052565b634e487b7160e01b600052604160045260246000fd5b90601f801991011681019081106001600160401b03821117611f6057604052565b6001600160401b038111611f6057601f01601f191660200190565b81601f82011215611ff957803590611fc982611f97565b92611fd76040519485611f76565b82845260208383010111611ff957816000926020809301838601378301015290565b600080fd5b805482101561201a576000526005602060002091020190600090565b634e487b7160e01b600052603260045260246000fd5b90600182811c92168015612060575b602083101461204a57565b634e487b7160e01b600052602260045260246000fd5b91607f169161203f565b906040519182600082549261207e84612030565b80845293600181169081156120ec57506001146120a5575b506120a392500383611f76565b565b90506000929192526020600020906000915b8183106120d05750509060206120a39282010138612096565b60209193508060019154838589010152019101909184926120b7565b9050602092506120a394915060ff191682840152151560051b82010138612096565b60005b8381106121215750506000910152565b8181015183820152602001612111565b9060209161214a8151809281855285808601910161210e565b601f01601f1916010190565b1561215d57565b60405162461bcd60e51b815260206004820152601e60248201527f5468756d626e61696c20686173682063616e6e6f7420626520656d70747900006044820152606490fd5b156121a957565b60405162461bcd60e51b815260206004820152601d60248201527f4d6574616461746120686173682063616e6e6f7420626520656d7074790000006044820152606490fd5b156121f557565b60405162461bcd60e51b81526020600482015260156024820152745469746c652063616e6e6f7420626520656d70747960581b6044820152606490fd5b60001981146122415760010190565b634e487b7160e01b600052601160045260246000fd5b1561225e57565b60405162461bcd60e51b8152602060048201526014602482015273159a59195bc8191bd95cc81b9bdd08195e1a5cdd60621b6044820152606490fd5b600092918154916122aa83612030565b808352926001811690811561230057506001146122c657505050565b60009081526020812093945091925b8383106122e6575060209250010190565b6001816020929493945483858701015201910191906122d5565b915050602093945060ff929192191683830152151560051b010190565b8060009172184f03e93ff9f4daa797ed6e38ed64bf6a1f0160401b821015612469575b806d04ee2d6d415b85acef8100000000600a92101561244e575b662386f26fc1000081101561243a575b6305f5e100811015612429575b61271081101561241a575b606481101561240c575b1015612401575b600a602160018401936123a585611f97565b946123b36040519687611f76565b8086526123c2601f1991611f97565b013660208701378401015b60001901916f181899199a1a9b1b9c1cb0b131b232b360811b8282061a83530480156123fc57600a90916123cd565b505090565b600190910190612393565b60646002910493019261238c565b61271060049104930192612382565b6305f5e10060089104930192612377565b662386f26fc100006010910493019261236a565b6d04ee2d6d415b85acef81000000006020910493019261235a565b506040915072184f03e93ff9f4daa797ed6e38ed64bf6a1f0160401b810461234056fea26469706673582212205db057dfc603c83a060c17717ac9bc1880a779a86b1d52cea1feb8fccf6234e364736f6c634300081c0033",
  "linkReferences": {},
  "deployedLinkReferences": {}
}